{
  "contractName": "ToDo",
  "abi": [
    {
      "inputs": [],
      "stateMutability": "nonpayable",
      "type": "constructor"
    },
    {
      "inputs": [
        {
          "internalType": "uint256",
          "name": "",
          "type": "uint256"
        }
      ],
      "name": "toDoList",
      "outputs": [
        {
          "internalType": "string",
          "name": "title",
          "type": "string"
        },
        {
          "internalType": "string",
          "name": "content",
          "type": "string"
        },
        {
          "internalType": "enum ToDo.Progress",
          "name": "progress",
          "type": "uint8"
        }
      ],
      "stateMutability": "view",
      "type": "function"
    },
    {
      "inputs": [
        {
          "components": [
            {
              "internalType": "string",
              "name": "title",
              "type": "string"
            },
            {
              "internalType": "string",
              "name": "content",
              "type": "string"
            },
            {
              "internalType": "enum ToDo.Progress",
              "name": "progress",
              "type": "uint8"
            }
          ],
          "internalType": "struct ToDo.Thing",
          "name": "thing",
          "type": "tuple"
        }
      ],
      "name": "createThings",
      "outputs": [],
      "stateMutability": "nonpayable",
      "type": "function"
    },
    {
      "inputs": [
        {
          "internalType": "uint256",
          "name": "index",
          "type": "uint256"
        },
        {
          "internalType": "enum ToDo.Progress",
          "name": "newProgress",
          "type": "uint8"
        }
      ],
      "name": "changeProgess",
      "outputs": [],
      "stateMutability": "nonpayable",
      "type": "function"
    }
  ],
  "bytecode": "0x608060405234801561001057600080fd5b5033600160006101000a81548173ffffffffffffffffffffffffffffffffffffffff021916908373ffffffffffffffffffffffffffffffffffffffff160217905550610a63806100616000396000f3fe608060405234801561001057600080fd5b50600436106100415760003560e01c806315f3732c146100465780635ceff5f814610062578063c4f486251461007e575b600080fd5b610060600480360381019061005b91906106db565b6100b0565b005b61007c6004803603810190610077919061075a565b6101db565b005b6100986004803603810190610093919061079a565b6102bc565b6040516100a7939291906108c6565b60405180910390f35b600160009054906101000a900473ffffffffffffffffffffffffffffffffffffffff1673ffffffffffffffffffffffffffffffffffffffff163373ffffffffffffffffffffffffffffffffffffffff1614610140576040517f08c379a00000000000000000000000000000000000000000000000000000000081526004016101379061097d565b60405180910390fd5b60008190806001815401808255809150506001900390600052602060002090600302016000909190919091506000820151816000019080519060200190610188929190610413565b5060208201518160010190805190602001906101a5929190610413565b5060408201518160020160006101000a81548160ff021916908360038111156101d1576101d061084f565b5b0217905550505050565b600160009054906101000a900473ffffffffffffffffffffffffffffffffffffffff1673ffffffffffffffffffffffffffffffffffffffff163373ffffffffffffffffffffffffffffffffffffffff161461026b576040517f08c379a00000000000000000000000000000000000000000000000000000000081526004016102629061097d565b60405180910390fd5b80600083815481106102805761027f61099d565b5b906000526020600020906003020160020160006101000a81548160ff021916908360038111156102b3576102b261084f565b5b02179055505050565b600081815481106102cc57600080fd5b90600052602060002090600302016000915090508060000180546102ef906109fb565b80601f016020809104026020016040519081016040528092919081815260200182805461031b906109fb565b80156103685780601f1061033d57610100808354040283529160200191610368565b820191906000526020600020905b81548152906001019060200180831161034b57829003601f168201915b50505050509080600101805461037d906109fb565b80601f01602080910402602001604051908101604052809291908181526020018280546103a9906109fb565b80156103f65780601f106103cb576101008083540402835291602001916103f6565b820191906000526020600020905b8154815290600101906020018083116103d957829003601f168201915b5050505050908060020160009054906101000a900460ff16905083565b82805461041f906109fb565b90600052602060002090601f0160209004810192826104415760008555610488565b82601f1061045a57805160ff1916838001178555610488565b82800160010185558215610488579182015b8281111561048757825182559160200191906001019061046c565b5b5090506104959190610499565b5090565b5b808211156104b257600081600090555060010161049a565b5090565b6000604051905090565b600080fd5b600080fd5b600080fd5b6000601f19601f8301169050919050565b7f4e487b7100000000000000000000000000000000000000000000000000000000600052604160045260246000fd5b610518826104cf565b810181811067ffffffffffffffff82111715610537576105366104e0565b5b80604052505050565b600061054a6104b6565b9050610556828261050f565b919050565b600080fd5b600080fd5b600080fd5b600067ffffffffffffffff821115610585576105846104e0565b5b61058e826104cf565b9050602081019050919050565b82818337600083830152505050565b60006105bd6105b88461056a565b610540565b9050828152602081018484840111156105d9576105d8610565565b5b6105e484828561059b565b509392505050565b600082601f83011261060157610600610560565b5b81356106118482602086016105aa565b91505092915050565b6004811061062757600080fd5b50565b6000813590506106398161061a565b92915050565b600060608284031215610655576106546104ca565b5b61065f6060610540565b9050600082013567ffffffffffffffff81111561067f5761067e61055b565b5b61068b848285016105ec565b600083015250602082013567ffffffffffffffff8111156106af576106ae61055b565b5b6106bb848285016105ec565b60208301525060406106cf8482850161062a565b60408301525092915050565b6000602082840312156106f1576106f06104c0565b5b600082013567ffffffffffffffff81111561070f5761070e6104c5565b5b61071b8482850161063f565b91505092915050565b6000819050919050565b61073781610724565b811461074257600080fd5b50565b6000813590506107548161072e565b92915050565b60008060408385031215610771576107706104c0565b5b600061077f85828601610745565b92505060206107908582860161062a565b9150509250929050565b6000602082840312156107b0576107af6104c0565b5b60006107be84828501610745565b91505092915050565b600081519050919050565b600082825260208201905092915050565b60005b838110156108015780820151818401526020810190506107e6565b83811115610810576000848401525b50505050565b6000610821826107c7565b61082b81856107d2565b935061083b8185602086016107e3565b610844816104cf565b840191505092915050565b7f4e487b7100000000000000000000000000000000000000000000000000000000600052602160045260246000fd5b6004811061088f5761088e61084f565b5b50565b60008190506108a08261087e565b919050565b60006108b082610892565b9050919050565b6108c0816108a5565b82525050565b600060608201905081810360008301526108e08186610816565b905081810360208301526108f48185610816565b905061090360408301846108b7565b949350505050565b7f546869732066756e6374696f6e206973207265737472696374656420746f207460008201527f686520636f6e74726163742773206f776e657200000000000000000000000000602082015250565b60006109676033836107d2565b91506109728261090b565b604082019050919050565b600060208201905081810360008301526109968161095a565b9050919050565b7f4e487b7100000000000000000000000000000000000000000000000000000000600052603260045260246000fd5b7f4e487b7100000000000000000000000000000000000000000000000000000000600052602260045260246000fd5b60006002820490506001821680610a1357607f821691505b60208210811415610a2757610a266109cc565b5b5091905056fea2646970667358221220bd58a2b152cce25420828385cb772c55b57c50cd886576a5cb2a7a38930eb85c64736f6c634300080b0033",
  "immutableReferences": {},
  "source": "// SPDX-License-Identifier: MIT\r\npragma solidity ^0.8.7;\r\n\r\ncontract ToDo {\r\n  enum Progress { inActive, onGoing, finish, cancel }\r\n  struct Thing {\r\n    string title;\r\n    string content;\r\n    Progress progress; \r\n  }\r\n  Thing[] public toDoList;\r\n  address owner;\r\n  modifier restricted() {\r\n    require(\r\n      msg.sender == owner,\r\n      \"This function is restricted to the contract's owner\"\r\n    );\r\n    _;\r\n  }  \r\n\r\n  constructor() {\r\n    owner = msg.sender;\r\n  }\r\n\r\n  function createThings(Thing memory thing) public restricted {\r\n    toDoList.push(thing);\r\n  }\r\n\r\n  function changeProgess(uint index, Progress newProgress) public restricted {\r\n    toDoList[index].progress = newProgress;\r\n  }\r\n\r\n}",
  "sourcePath": "C:\\Users\\USER\\Workspace\\first_blockchain_app\\truffle_project\\contracts\\ToDo.sol",
  "compiler": {
    "name": "solc",
    "version": "0.8.11+commit.d7f03943.Emscripten.clang"
  },
  "schemaVersion": "3.4.4",
  "updatedAt": "2022-04-18T16:29:16.819Z",
  "devdoc": {
    "kind": "dev",
    "methods": {},
    "version": 1
  },
  "userdoc": {
    "kind": "user",
    "methods": {},
    "version": 1
  }
}